:020000040800F2
:10000000008001208D1D0008D11D0008D11D0008B1
:10001000D11D0008D11D0008D11D000800000000FE
:10002000000000000000000000000000D11D0008DA
:10003000D11D000800000000D11D0008D11D0008DE
:10004000D11D0008D11D0008D11D0008D11D0008D8
:10005000D11D0008D11D0008750E0008950E00087E
:10006000B50E0008D50E0008F50E0008D11D0008D9
:10007000D11D0008D11D0008D11D0008D11D0008A8
:10008000D11D0008191D0008D11D00080000000046
:10009000000000000000000000000000150F000834
:1000A000D11D0008D11D0008D11D0008D11D000878
:1000B000D11D0008D11D0008D11D0008D11D000868
:1000C000D11D0008D11D0008D11D0008911900089C
:1000D000D11D0008D11D0008D11D0008000000003E
:1000E000C50F0008D11D0008D11D00080000000048
:1000F000000000000000000000000000D11D00080A
:1001000000000000D11D0008D11D0008D11D00080D
:1001100000000000000000000000000000000000DF
:10012000D11D0008D11D0008D11D0008D11D0008F7
:10013000D11D0008000000000000000000000000C9
:10014000000000000000000000000000D11D0008B9
:10015000D11D0008D11D0008D11D0008D11D0008C7
:10016000D11D0008D11D00080000000000000000A3
:10017000000000000000000000000000000000007F
:1001800000000000D11D0008000000000000000079
:04019000D11D000875
:100194000348044B834202D0034B03B11847704712
:1001A4000400002004000020000000000548064B65
:1001B4001B1AD90F01EBA301491002D0034B03B161
:1001C40018477047040000200400002000000000CD
:1001D40010B5064C237843B9FFF7DAFF044B13B18B
:1001E4000448AFF300800123237010BD04000020F5
:1001F400000000001C1E000808B5054B1BB1054992
:100204000548AFF30080BDE80840FFF7CFBF00BF4B
:1002140000000000080000201C1E000880B483B009
:1002240000AFEFF310837B607B6818460C37BD4644
:100234005DF8047B704780B400AF72B600BFBD4662
:100244005DF8047B704780B483B000AF78607B684E
:1002540083F3108800BF0C37BD465DF8047B7047FC
:1002640080B483B000AF0023FB710BE0FB790A4A32
:1002740013445B7ADBB2002B01D0012306E0FB7947
:100284000133FB71FB79032BF0D9002318460C379B
:10029400BD465DF8047B70472000002080B483B025
:1002A40000AF0E4B1B78DBB20133FB710BE0FB7923
:1002B4000A4A13445B7ADBB2002B01D0FB7906E0D7
:1002C400FB790133FB71FB79032BF0D9FF2318462B
:1002D4000C37BD465DF8047B704700BF200000204A
:1002E40080B483B000AF124B1B78DBB2002B01D17A
:1002F400FF2316E00E4B1B78DBB2013BFB71FB794D
:100304000B4A13445B7ADBB2002B01D0FB7908E083
:10031400FB79002B03D0FB79013BFB71EFE700BFB6
:10032400FF2318460C37BD465DF8047B704700BFB9
:100334002000002080B584B000AFFFF76FFFB860E5
:10034400FFF779FFBB687B601D4B00221A701C4BC2
:1003540000225A701A4B00229A70194B0022DA704C
:10036400174B00221A71164B00225A71144B0022AB
:100374009A71134B0022DA71114B00221A72002376
:10038400FB7307E0FB7B0E4A134400225A72FB7B8B
:100394000133FB73FB7B032BF4D97868FFF753FF1E
:1003A40001F004F901F0AEFB00F054F800F00AF893
:1003B400012001F025F800BF1037BD4680BD00BF05
:1003C4002000002080B400AF1F4B1B6C1E4A43F07A
:1003D400100313641D4B1B681C4A23F001031360B4
:1003E4001A4B4AF20F429A62184B40F2F312DA6245
:1003F400164B1B68154A43F080031360134BDB68EC
:10040400124A43F00103D360114B402283F8362390
:100414000F4B4FF480025A600C4B5B690B4A43F05C
:1004240001035361094B1B69084A23F0010313615B
:10043400064B1B68054A43F00103136000BFBD4629
:100444005DF8047B704700BF003802400010004094
:1004540000E100E080B400AF984B5B6C974A43F432
:1004640080435364954B1B6B944A43F0010313631D
:10047400924B1B6B914A43F0020313638F4B1B6B2C
:100484008E4A43F0040313638C4B1B6B8B4A43F07B
:10049400080313638A4BDB68894A23F00303D360A0
:1004A400874BDB68864A43F00103D360854BDB68E6
:1004B400844A23F0FC03D360824BDB68814A43F017
:1004C4005403D360804BDB687F4A23F47063D360AA
:1004D4007D4BDB687C4A43F4A063D3607B4BDB68D1
:1004E4007A4A23F04F7323F47C33D360774BDB6871
:1004F400764A43F08A7343F4A833D360744B0022E2
:100504009A60734B9B68724A43F003039360704B89
:100514009B686F4A43F0200393606D4B9B686C4A61
:1005240043F4007393606A4B9B68694A43F4005335
:100534009360674B0022DA60654B654ADB68D360E1
:10054400634B634ADB68D360614BDB68604A43F406
:100554008073D3605E4BDB685D4A43F48053D360A1
:100564005B4B00221A615A4B1B69594A43F0010341
:100574001361574B1B69564A43F010031361544BE4
:100584001B69534A43F480731361514B00225A612F
:100594004F4B5B694E4A43F0010353614D4BDB689B
:1005A4004C4A43F00103D3604A4BDB68494A43F0A9
:1005B4000203D360474BDB68464A43F00403D3602D
:1005C400444BDB68434A43F00803D360414BDB6888
:1005D400404A43F01003D3603E4BDB683D4A43F08E
:1005E4002003D3603B4BDB683A4A43F04003D360BB
:1005F400384BDB68374A43F08003D360354BDB6804
:10060400344A43F48073D360324BDB68314A43F499
:100614000073D3602F4BDB682E4A43F48063D360AE
:100624002C4BDB682B4A43F48053D360294B1B6863
:10063400284A43F001031360264B1B68254A43F004
:1006440002031360234B1B68224A43F00403136024
:10065400204B1B681F4A43F0080313601D4B1B68A3
:100664001C4A43F0100313601A4B1B68194A43F0E9
:1006740020031360174B1B68164A43F040031360B2
:10068400144B1B68134A43F080031360114B1B681F
:10069400104A43F4807313600E4B1B680D4A43F4F5
:1006A400007313600B4B1B680A4A43F480631360A6
:1006B400084B1B68074A43F480530DE0003802409E
:1006C400000C024000080240000002400004024006
:1006D40000380140003C014013601D4B002283F8A8
:1006E40006231B4B40221A60194B202283F8072350
:1006F400174B80221A60164B202283F80823144BD0
:100704004FF480721A60124B202283F80923104B95
:100714004FF400721A600E4B302283F80A230C4BFC
:100724004FF480621A600A4B302283F81723084B77
:100734004FF400021A60064B302283F82123044B45
:100744004FF480725A6000BFBD465DF8047B704769
:1007540000E100E080B590B000AFA04B5B79DBB264
:10076400002B46D0002000F0ADFFFFF757FD786066
:10077400FFF761FD7B687B63984B04221A71974BEA
:100784000022DA70954B00229A70944B00229A71E1
:10079400934B00221A70002387F83F300AE097F841
:1007A4003F308E4A134400225A7297F83F30013387
:1007B40087F83F3097F83F30032BF0D9786BFFF779
:1007C40042FD884B04229A70864B00221A71FFF76F
:1007D40025FD3860FFF72FFD3B687B63814B5B7918
:1007E40043F00103DAB27F4B5A71786BFFF72BFDAC
:1007F400CFE17A4B1B79DBB2042B00F2618101A2B9
:1008040052F823F01D080008BF0800088F090008EB
:100814006B0A0008BD0A0008002000F053FFFFF730
:10082400FDFCB861FFF707FDBB697B636B4B0022DE
:10083400DA706A4B00229A70786BFFF704FDFFF7B9
:100844000FFD0346002B00F04C81FFF727FD034604
:10085400FB75FFF745FD0346BB75FFF7DFFC386109
:10086400FFF7E9FC3B697B63FB7DFF2B0CD05B4A04
:10087400FB7D5370594B01229A70584B01221A7117
:10088400564B6322DA700EE0BB7DFF2B0BD0534A2C
:10089400BB7D5370514B02229A70504B02221A7145
:1008A4004E4B6322DA70786BFFF7CDFC4B4BDB7851
:1008B400DBB2184600F006FF1AE1484B5B78DAB267
:1008C400464B1B78DBB29A421FD9444B5B78DBB2B0
:1008D4001A46424B1B78DBB2D31A012B15D83F4B77
:1008E400DB78DBB2142B25D0FFF798FC7862FFF796
:1008F400A2FC7B6A7B63394B1422DA70786BFFF7B6
:10090400A2FC142000F0DEFE14E0344BDB78DBB2F2
:10091400632B0FD0FFF782FC3862FFF78CFC3B6A35
:100924007B632E4B6322DA70786BFFF78CFC6320B9
:1009340000F0C8FE294B1B78DAB2284B5B78DBB297
:100944009A4240F0D080002000F0BCFEFFF766FC25
:10095400F861FFF770FCFB697B63204B0022DA70BF
:100964001E4B1B78DBB21A461C4B134400225A72EE
:100974001A4B01229A71194B03221A71184B002247
:100984001A70786BFFF75FFCADE0144B1B78DAB29A
:10099400124B5B78DBB29A4226D9104B1B78DBB240
:1009A4001A460E4B5B78DBB2D31A012B1CD80B4BC7
:1009B400DB78DBB2142B2CD0FFF730FC3863FFF765
:1009C4003AFC3B6B7B63054B1422DA70786BFFF7C0
:1009D4003AFC142000F076FE1BE000BF200000204B
:1009E4002D0000205C0000206B4BDB78DBB2632B16
:1009F4000FD0FFF713FCF862FFF71DFCFB6A7B6363
:100A0400654B6322DA70786BFFF71DFC632000F0FE
:100A140059FE614B1B78DAB25F4B5B78DBB29A42CA
:100A240063D1002000F04EFEFFF7F8FBB862FFF739
:100A340002FCBB6A7B63584B0022DA70564B1B786E
:100A4400DBB21A46544B134400225A72524B012211
:100A54009A71514B03221A71504B00221A70786B11
:100A6400FFF7F1FB41E0002000F02CFE4A4B1B7A1B
:100A7400DBB2002B05D0494B1B780133DAB2474B6C
:100A84001A70464B1B78052B31D9FFF7C7FBB863A7
:100A9400FFF7D1FBBB6B7B633F4B00229A713E4B4C
:100AA40000221A713C4B00229A703C4B00221A70AF
:100AB400786BFFF7C8FB1AE0002000F003FE17E094
:100AC400FFF7ACFBF860FFF7B6FBFB687B63324BC8
:100AD40000221A71786BFFF7B6FB002000F0F2FDDC
:100AE40006E000BF04E000BF02E000BF00E000BF7A
:100AF400FFF794FBB860FFF79EFBBB687B63264B54
:100B04001B78DAB2264B5A70234B1B79DAB2244B8A
:100B14009A70214B5B78DAB2214BDA701E4BDB788A
:100B2400DAB21F4B1A711E4B00225A711A4B5B79B1
:100B3400DBB2002B06D01A4B5B7943F00103DAB227
:100B4400174B5A71144B9B79DBB2002B06D0144B14
:100B54005B7943F00203DAB2114B5A710E4B9B7866
:100B6400DBB2012B06D10E4B5B7943F00403DAB2FE
:100B74000B4B5A71084B9B78DBB2022B06D1084B06
:100B84005B7943F00803DAB2054B5A71786BFFF7CF
:100B94005AFB4037BD4680BD200000202D000020B8
:100BA4005C000020B0B58AB006AF234B1B7ADBB2E1
:100BB400002B3BD0214B1B78DBB2002B38D1FFF745
:100BC4002DFBF860FFF737FBFB68BB601A4B1B7803
:100BD400FB71194B1B79BB71174BDB787B71164B7F
:100BE4009B783B71144B5B79FB70134BDB79BB70C7
:100BF400114B00221A72B868FFF725FBFD79BB7907
:100C04007A793979F878BC78049403900291019246
:100C140000932B460A4A80210A4800F07FF80346D5
:100C24007B707B78184601F037F802E000BF00E0E3
:100C340000BF1037BD46B0BD200000201C010020BD
:100C4400341E00089C00002080B582B000AF03462B
:100C5400FB71FB790C2B57D801A252F823F000BF8B
:100C6400990C0008B50C0008BD0C0008C50C000860
:100C7400CD0C0008D50C0008DD0C0008E50C0008BC
:100C8400ED0C0008F50C0008FD0C00080D0D000823
:100C9400050D00081F4B01225A71002000F012FDBF
:100CA4001D4B5B7943F00103DAB21B4B5A712CE004
:100CB400184B01221A7028E0164B02221A7024E005
:100CC400144B03221A7020E0124B0122DA721CE04A
:100CD400104B01221A7318E00E4B01225A7214E0D1
:100CE4000C4B01229A7210E00A4B0122DA720CE0DA
:100CF400084B01221A7308E0064B01221A7304E020
:100D0400044B01225A7200E000BF00BF0837BD4601
:100D140080BD00BF200000205C0000200CB480B423
:100D24008BB000AF78600B46FB70002387F8273048
:100D34003B6B3B6207F134037B617CE03B6A1B78CD
:100D4400252B0ED097F827305A1C87F827201A46EF
:100D54007B6813443A6A12781A703B6A01333B6227
:100D640069E03B6A01333B623B6A1B78642B5FD1C9
:100D74007B691A1D7A611B68BB61002387F82530E3
:100D8400BB69002B0AD197F825305A1C87F8252017
:100D940028333B44302203F8202C25E0BB69FB6157
:100DA4001BE0F969314BA3FB0123DA0813469B00CE
:100DB40013445B00CA1AD2B297F82530591C87F83D
:100DC40025103032D2B228333B4403F8202CFB697F
:100DD400264AA2FB0323DB08FB61FB69002B03D03B
:100DE40097F825300A2BDCD997F8253087F8263078
:100DF40014E097F826305A1E97F82730591C87F8C4
:100E0400271019467B680B4428323A4412F8202CE8
:100E14001A7097F82630013B87F8263097F8263069
:100E2400002B05D097F82720FB78013B9A42E0D3AA
:100E34003B6A01333B623B6A1B78002B06D097F870
:100E44002720FB78013B9A42FFF478AF97F82730CC
:100E54007A68134400221A7097F8273018462C3702
:100E6400BD465DF8047B02B0704700BFCDCCCCCC4E
:100E740080B500AF0020FFF7E7FE044B5B69034A2F
:100E840043F00103536100BF80BD00BF003C01403B
:100E940080B500AF0120FFF7D7FE044B5B69034A1E
:100EA40043F00203536100BF80BD00BF003C01401A
:100EB40080B500AF0220FFF7C7FE044B5B69034A0D
:100EC40043F00403536100BF80BD00BF003C0140F8
:100ED40080B500AF0320FFF7B7FE044B5B69034AFC
:100EE40043F00803536100BF80BD00BF003C0140D4
:100EF40080B500AF0420FFF7A7FE044B5B69034AEB
:100F040043F01003536100BF80BD00BF003C0140AB
:100F140080B582B000AF294B5B697B607B685B095D
:100F240003F00103002B08D00520FFF78DFE234BAF
:100F34005B69224A43F0200353617B689B0903F0F9
:100F44000103002B08D00620FFF77EFE1B4B5B69D4
:100F54001A4A43F0400353617B68DB0903F0010341
:100F6400002B08D00720FFF76FFE144B5B69134A70
:100F740043F0800353617B681B0A03F00103002BD9
:100F840008D00820FFF760FE0C4B5B690B4A43F462
:100F9400807353617B685B0A03F00103002B08D064
:100FA4000920FFF751FE054B5B69044A43F40073C3
:100FB400536100BF0837BD4680BD00BF003C0140FF
:100FC40080B582B000AF124B5B697B607B689B0A83
:100FD40003F00103002B08D00A20FFF735FE0C4B69
:100FE4005B690B4A43F4806353617B681B0B03F01A
:100FF4000103002B08D00C20FFF726FE044B5B698D
:10100400034A43F48053536100BF0837BD4680BD93
:10101400003C014090B484B000AF04460846114639
:101024001A462346FB710346BB710B467B7113467C
:101034003B71FA797B79D31ADBB2FB7397F90F30E2
:10104400002B03DAFB7B5B42DBB2FB73BB79002B27
:1010540002D197F90F303BE0BB79012B09D13B79E1
:10106400002B06D1FA797B799A4202D297F90F3094
:101074002EE0BB79022B09D13B79012B06D1FA79F9
:101084007B799A4202D997F90F3021E0BB79012B81
:101094000BD13B79002B08D1FA797B799A4204D39E
:1010A400FB7B0A33DBB25BB212E0BB79022B0BD1C0
:1010B4003B79012B08D1FA797B799A4204D8FB7BDE
:1010C4000A33DBB25BB203E0FB7B1433DBB25BB20B
:1010D40018461037BD4690BC7047000080B483B0FA
:1010E40000AF0023FB7162E0FB79364A9B00134496
:1010F40000229A70FB79334A9B0013440022DA7071
:10110400FB79002B0AD1FB792E4A012102F8231026
:10111400FB792C4A9B00134400225A70FB79012B63
:101124000AD1FB79274A022102F82310FB79254AC8
:101134009B00134401225A70FB79022B0AD1FB79DC
:10114400204A022102F82310FB791E4A9B00134413
:1011540000225A70FB79032B0AD1FB79194A032127
:1011640002F82310FB79174A9B00134401225A709A
:10117400FB79042B0AD1FB79124A032102F82310CC
:10118400FB79104A9B00134400225A70FB79052B0B
:101194000AD1FB790B4A042102F82310FB79094A8E
:1011A4009B00134401225A70FB790133FB71FB79D4
:1011B400052B99D900BF00BF0C37BD465DF8047BF1
:1011C400704700BF3000002080B584B000AF0346F4
:1011D4000A46FB711346BB71174B1B7CDBB2002B19
:1011E40001D0012324E0144B9B78FB73124B5B78F2
:1011F400BB73114B9B7A7B730F4B5B7A3B73BB794D
:10120400FA79B97BF87BFFF705FF0346FB72BB79DC
:10121400FA79397B787BFFF7FDFE0346BB7297F9B9
:101224000B2097F90A309A4201DC012300E00223E3
:1012340018461037BD4680BD4800002080B582B0F6
:1012440000AF0023FB7173E0FB793D4A9B0013441C
:101254009B78DBB2002B28D0FB79394A9B001344DE
:10126400DB78DBB2002B20D1FB79354A12F823302E
:10127400DAB2FB7932499B000B445B78DBB2194646
:101284001046FFF7A1FF0346BB71FB792C4A9B0074
:101294001344BA79DA70BB79022B06D1FB79284A58
:1012A40012F82330DAB2274BDA70FB79244A12F8A9
:1012B40023307B71FB79224A9B001344DB78DBB239
:1012C400012B15D11F4B9B787A799A422DD11D4B56
:1012D4001B79012B29D1FB79194A9B001344002265
:1012E4009A70FB79164A9B0013440022DA701CE0C2
:1012F400FB79134A9B001344DB78DBB2022B14D135
:10130400104B9B7A7A799A420FD10E4B1B7B012B9F
:101314000BD1FB790A4A9B00134400229A70FB7993
:10132400074A9B0013440022DA70FB790133FB71F6
:10133400FB79052B88D900BF00BF0837BD4680BDA7
:10134400300000204800002080B485B000AF7860F1
:101354000023FB730023BB730AE0BB7B7A6813444E
:101364001B78DAB2FB7B5340FB73BB7B0133BB734B
:10137400BB7B062BF1D9FB7B18461437BD465DF8C1
:10138400047B704790B583B000AF786039607B68A8
:10139400A5221A707B6800229A717B681A783B68D0
:1013A4001A703B6801337A6852781A703B680233CA
:1013B4007A6892781A703B6803337A68D2781A7024
:1013C4003B6804337A6812791A703B6805337A688B
:1013D40052791A703B6806337A6892791A703B68BE
:1013E400DC1D3868FFF7B0FF034623703B68073302
:1013F4001B78DAB27B68DA7100BF0C37BD4690BD4A
:1014040080B584B000AF0346FB710023FB730CE08E
:10141400FB7B254A134400221A74FB7B224A1344A3
:1014240000221A76FB7B0133FB73FB7B072BEFD97E
:101434001D4B002283F820201B4B00225A621A4BBA
:1014440000229A62184BA5221A70174B00225A7078
:10145400154B00229A70144B0022DA70124B0022B2
:101464001A71114B00225A710F4B00229A710E4BC4
:101474000022DA710D4B0E4A1A60FB79002B03D05F
:101484000A4800F081F90AE0084800F0F1F9094936
:101494000548FFF777FF0749044800F043FA00BF07
:1014A4001037BD4680BD00BF5C00002088000020CE
:1014B400003001406C00002080B483B000AF0D4BBD
:1014C4001B69DBB203F00103FB710B4B1B78DBB22E
:1014D400002B05D0FB79002B02D1084B00221A7097
:1014E400054AFB79137000BF0C37BD465DF8047BD9
:1014F400704700BF000802400000002020000020C8
:1015040080B483B000AF174B1B69DBB203F0010357
:10151400FB71154B1B78DBB2002B05D0FB79002B3C
:1015240002D1124B01225A720F4AFB7913700D4BF0
:101534001B695B08DBB203F00103BB710C4B1B7826
:10154400DBB2002B05D0BB79002B02D1074B012263
:101554009A72074ABB79137000BF0C37BD465DF819
:10156400047B70470000024001000020200000209E
:101574000200002080B500AFFEF7DCFEFFF7AEFDF1
:101584000120FFF73DFFFFF7E5F8FFF757FE064B95
:101594001B7ADBB2002B01D0FFF704FBFFF78CFFB3
:1015A400FFF7AEFFEFE700BF2000002080B485B056
:1015B40000AF3F4B1B6B3E4A43F0010313633C4BAC
:1015C4005B6C3B4A43F0010353643A4BFB603A4B78
:1015D400BB603A4B7B60FB681B6823F44032FB68BA
:1015E4001A60FB681B6843F40032FB681A60BB682E
:1015F4001B6823F44032BB681A60BB681B6843F461
:101604000032BB681A607B681B6823F00F027B689A
:101614001A607B681B6843F001027B681A60284BE0
:101624001B68274A23F001031360254B53229A6257
:10163400234B6322DA62224B00221A63204B0022DE
:101644009A611F4B9B691E4A43F0600393611C4BD4
:101654009B691B4A43F008039361194B00221A62E9
:10166400174B1B6A164A43F001031362144B002202
:101674005A63134B1B68124A43F080031360104BE8
:101684005B6C0F4A43F4004353640D4B5B690C4A93
:1016940043F0010353610A4B1B68094A43F00103F9
:1016A400136000BF1437BD465DF8047B704700BF6C
:1016B40000380240000002400800024024000240BA
:1016C4000000014080B483B000AF0346FB71FB7996
:1016D400632B01D96323FB71044AFB79536300BF75
:1016E4000C37BD465DF8047B704700BF0000014025
:1016F40080B485B000AF1F4B1B6B1E4A43F001033F
:1017040013631D4BFB601D4BBB601D4B7B601D4B6E
:101714003B60FB681B6823F47F42FB681A60FB682C
:101724001B6843F42A42FB681A60BB681B6823F4F5
:101734007F42BB681A60BB681B6843F47F42BB6886
:101744001A607B681B6823F47F427B681A603B68DD
:101754001B689AB23B681A603B681B6843F0AA4353
:1017640043F4AA033A68136000BF1437BD465DF81A
:10177400047B704700380240000002400800024029
:101784000C0002402000024080B584B000AF7860B5
:10179400FFF7AEFF334BFB60FB681B6823F440721A
:1017A400FB681A60FB681B6843F48072FB681A606C
:1017B40000F0D8F82C4B5B6C2B4A43F480535364F1
:1017C4007B681B681A687B681B6822F040021A60F9
:1017D4007B681B6800221A607B681B681A687B6838
:1017E4001B6842F018021A607B681B681A687B68E1
:1017F4001B6842F004021A607B681B681A687B68E5
:101804001B6842F400721A607B681B681A687B6864
:101814001B6842F480721A607B681B6800225A605D
:10182400124B202283F82323104B08225A607B6832
:1018340000221A717B6800229A747B680022DA7491
:101844007B6800221A747B6800225A747B681B68C8
:101854001A687B681B6842F040021A6000BF1037A8
:10186400BD4680BD000002400038024000E100E0B7
:1018740080B582B000AF7860FFF73AFF274B5B6C0E
:10188400264A43F4805353647B681B681A687B6858
:101894001B6822F040021A607B681B6800221A60F1
:1018A4007B681B6800225A607B681B685A687B68E7
:1018B4001B6842F040025A607B681B685A687B6868
:1018C4001B6842F080025A607B681B685A687B6818
:1018D4001B6842F020025A60114B102283F8232324
:1018E4000F4B08225A607B6800221A717B68002221
:1018F4009A747B680022DA747B6800221A747B680D
:1019040000225A747B681B681A687B681B6842F063
:1019140040021A6000BF0837BD4680BD003802404F
:1019240000E100E080B483B000AF7860396000BFAC
:101934007B681B689B685B0803F00103002BF7D0EE
:101944003B681B78DAB27B681B68DA607B683A68AC
:101954009A607B6807221A7400BF0C37BD465DF895
:10196400047B704780B483B000AF074B7B607B6817
:101974001B6843F010027B681A6000BF0C37BD4639
:101984005DF8047B704700BF1400024080B584B04A
:1019940000AF5B4BFB60FB681B689B68BB60FB682C
:1019A4001B685B687B60BB685B0803F00103002B6A
:1019B4003FD07B68DB0903F00103002B39D0FB68BF
:1019C4001B7CDBB2002B16D0FB681B7CDBB2C3F1A3
:1019D4000803FB70FB689A68FB7813441B78DAB23F
:1019E400FB681B68DA60FB681B7CDBB2013BDAB284
:1019F400FB681A741DE0FB681B685A68FB681B6867
:101A040022F080025A60FB6801229A74FB681B680A
:101A14001B689B0803F00103002B0AD000BFFB687E
:101A24001B689B68DB0903F00103002BF7D1FFF768
:101A340099FFBB6803F00103002B49D07B689B0925
:101A440003F00103002B43D0FB685B7CDBB2002B6B
:101A54003ED0FB685B7CDBB2C3F10803BB70FB6860
:101A64001B68D968FB68DA68BB781344CAB21A7079
:101A7400FB685B7CDBB2013BDAB2FB685A74FB683F
:101A84005B7CDBB2002B23D1FB681B685A68FB68C4
:101A94001B6822F040025A60FB680122DA74FB687A
:101AA40000221A71FB681B681B689B0803F0010382
:101AB400002B0DD1FB689B68002B09D0FB689B6849
:101AC4001B78DAB2FB681B68DA60FB6807221A74B9
:101AD400BB689B0903F00103002B0DD0FB681B6856
:101AE400DB68DBB27B70FB681B689B68DBB27B70D6
:101AF4007B78FB6800221A7100BF1037BD4680BD99
:101B04008800002080B485B000AF594B1B6B584A45
:101B140043F001031363564B1B6B554A43F4001304
:101B24001363534B1B6C524A43F400331364514BFD
:101B3400FB60514BBB60514B7B60FB681B6823F01F
:101B4400F002FB681A60FB681B6843F0A002FB68A4
:101B54001A60BB681B6823F0F002BB681A60BB689C
:101B64001B6843F0A002BB681A607B681B6823F4FF
:101B74007F427B681A607B681B6843F4EE427B6893
:101B84001A603F4BDB683E4A23F40053D3603C4B5E
:101B940041F2C9629A603A4B0022DA60384BDB6842
:101BA400374A43F00803D360354BDB68344A43F0CB
:101BB4000403D360324B00225A61314B5B69304AD3
:101BC40043F0800353612E4BDB682D4A43F40053EA
:101BD400D3602C4B1B682B4A23F00103136000BF16
:101BE400284B1B6803F00103002BF9D1264B4FF45B
:101BF4007C12DA60234B254A9A60224B244ADA602D
:101C0400204B00221A601F4B1B681E4A43F00063DE
:101C140013601C4B1B681B4A43F400331360194BBD
:101C24001B68184A43F480631360164B1B68154AFB
:101C340043F040031360134B1B68124A43F0100334
:101C44001360104B1B680F4A43F0040313600D4BE1
:101C540000225A610F4B302283F811230D4B4FF4AD
:101C640000321A6000BF1437BD465DF8047B70472C
:101C740000380240000002400800024020000240F8
:101C840000440040A0600240006002400444004060
:101C94009C00002000E100E080B483B000AF034664
:101CA400FB71184B1B78DBB2002B23D1FB79002B83
:101CB40022D0144B01221A70134B1B68124A23F0D2
:101CC4000103136000BF104B1B6803F00103002BDA
:101CD400F9D10E4B4FF47C12DA600B4AFB79536056
:101CE400094B0B4ADA60084B1B68074A43F00103AF
:101CF400136002E000BF00E000BF0C37BD465DF892
:101D0400047B70471C010020A06002400060024078
:101D14009C00002080B400AF184B5B685B0D03F09F
:101D24000103002B0ED0154BDB68144A43F4001357
:101D3400D360134B1B68124A23F001031360114B49
:101D440000221A700D4B5B68DB0C03F00103002BBF
:101D54000ED00A4BDB68094A43F40023D360084BD6
:101D64001B68074A23F001031360064B00221A7014
:101D740000BFBD465DF8047B704700BF00600240B1
:101D8400A06002401C01002000200B490B4A0C4BB0
:101D940002E01C580C5004300C189442F9D3002073
:101DA4000849094A01E0086004319142FBD300F07C
:101DB4000FF8FFF7DFFB0000000000200400002004
:101DC400681E00080400002020010020FEE7000037
:101DD40070B50D4B0D4D5B1B9C100026A64209D11E
:101DE40000F01AF80A4D0B4B5B1B9C100026A64210
:101DF40005D170BD55F8043B98470136EEE755F818
:101E0400043B98470136F2E7601E0008601E000894
:101E1400601E0008641E0008F8B500BFF8BC08BCCA
:101E24009E467047F8B500BFF8BC08BC9E46704794
:101E3400454C567C464C3A25647C53543A25647C84
:101E440053503A25647C4449523A25647C454D3AC2
:0C1E540025647C43463A25640D0A00001A
:041E6000FD01000878
:041E6400D50100089C
:041E68000101010073
:0400000508001D8D45
:00000001FF
