:020000040800F2
:1000000000800120AD290008F1290008F12900082D
:10001000F1290008F1290008F1290008000000007A
:10002000000000000000000000000000F1290008AE
:10003000F129000800000000F129000881190008DA
:10004000F1290008F1290008F1290008F129000828
:10005000F1290008F1290008590B00087D0B000860
:10006000A10B0008C50B0008E90B0008F1290008E6
:10007000F1290008F1290008F1290008F1290008F8
:10008000F1290008F1290008F1290008000000000A
:100090000000000000000000000000000D0C00083F
:1000A000F1290008F1290008F1290008F1290008C8
:1000B0008D0E0008F1290008F1290008F129000837
:1000C000F1290008F1290008F1290008311D000874
:1000D000F1290008F1290008F129000800000000BA
:1000E000590C0008F1290008F1290008000000005F
:1000F000000000000000000000000000F1290008DE
:1001000000000000F1290008F1290008F129000889
:1001100000000000000000000000000000000000DF
:10012000F1290008F1290008F1290008F129000847
:10013000F12900080000000000000000000000009D
:10014000000000000000000000000000F12900088D
:10015000F1290008F1290008A9200008F129000868
:10016000F1290008F129000800000000000000004B
:10017000000000000000000000000000000000007F
:1001800000000000F129000800000000000000004D
:04019000F129000849
:100194000348044B834202D0034B03B11847704712
:1001A4002C0000202C000020000000000548064B15
:1001B4001B1AD90F01EBA301491002D0034B03B161
:1001C400184770472C0000202C000020000000007D
:1001D40010B5064C237843B9FFF7DAFF044B13B18B
:1001E4000448AFF300800123237010BD2C000020CD
:1001F400000000003C2A000808B5054B1BB1054966
:100204000548AFF30080BDE80840FFF7CFBF00BF4B
:1002140000000000300000203C2A000880B483B0B5
:1002240000AFEFF310837B607B6818460C37BD4644
:100234005DF8047B704780B400AF72B600BFBD4662
:100244005DF8047B704780B483B000AF78607B684E
:1002540083F3108800BF0C37BD465DF8047B7047FC
:1002640080B582B000AFFFF7D9FF7860FFF7E3FFF6
:100274007B6818460837BD4680BD80B582B000AFA4
:100284000346FB71FB791A460121002001F006FCAC
:1002940000BF0837BD4680BD80B483B000AF0023E3
:1002A400FB710BE0FB790A4A13449B7ADBB2002B07
:1002B40001D0012306E0FB790133FB71FB79032BA9
:1002C400F0D9002318460C37BD465DF8047B70470F
:1002D4004800002080B483B000AF0E4B1B78DBB223
:1002E4000133FB710BE0FB790A4A13449B7ADBB2BE
:1002F400002B01D0FB7906E0FB790133FB71FB791C
:10030400032BF0D9FF2318460C37BD465DF8047B58
:10031400704700BF4800002080B483B000AF124B88
:100324001B78DBB2002B01D1FF2316E00E4B1B78A8
:10033400DBB2013BFB71FB790B4A13449B7ADBB2C2
:10034400002B01D0FB7908E0FB79002B03D0FB796B
:10035400013BFB71EFE700BFFF2318460C37BD4696
:100364005DF8047B704700BF4800002080B483B070
:1003740000AF5C4B5B6C5B4A43F4804353645A4B61
:100384009B68594A23F00F039360574B9B68564A66
:1003940043F003039360544B9B68534A23F0F003E8
:1003A4009360514B9B68504A43F0200393604E4B3B
:1003B4009B684D4A23F4706393604B4B9B684A4A95
:1003C40043F400739360484B9B68474A23F470439B
:1003D4009360454B9B68444A43F400539360424BFB
:1003E400DB68414A23F47F43D3603F4BDB683E4ADA
:1003F40043F48853D3603C4B1B693B4A23F0FF030F
:100404001361394B1B69384A43F011031361364BAE
:100414001B69354A23F470631361334B1B69324AF9
:1004240043F480731361304B5B692F4A23F00F034D
:1004340053612D4B5B692C4A43F00103536141F234
:10044400CF737B60294B1A6828497B6813430B6080
:10045400264BDA6825497B681343CB60234B9A68A3
:100464007B68DB43214913408B60214B002283F8D6
:1004740006231F4B202283F807231D4B202283F8D9
:1004840008231B4B202283F80923194B302283F8BD
:100494000A23174B302283F81723154B302283F895
:1004A4002823134B40221A60114B80221A60104BF0
:1004B4004FF480721A600E4B4FF400721A600C4BAA
:1004C4004FF480621A600A4B4FF400021A60084B22
:1004D4004FF480725A6000BF0C37BD465DF8047B50
:1004E400704700BF0038024000380140003C014022
:1004F40000E100E080B400AF174B1B6C164A43F0D8
:1005040010031364154B00221A60144B43F67F62E8
:100514009A62124B40F2F312DA62104B00225A62D2
:100524000E4B0122DA600D4B01225A610B4B002263
:100534001A610B4B402283F83623094B4FF4800297
:100544005A60064B1B68054A43F00103136000BF61
:10055400BD465DF8047B704700380240001000403F
:1005640000E100E080B582B000AF3E4B1B6B3D4A1A
:1005740043F00F0313633B4B5B6C3A4A43F00103B4
:100584005364FFF76DFE3860374B00221A70364B08
:1005940000225A70344B00229A70334B0022DA70D6
:1005A400314B00221A71304B00225A712E4B00221B
:1005B4009A712D4B0022DA712B4B00221A722A4BAE
:1005C40000225A720023FB7107E0FB79264A134488
:1005D40000229A72FB790133FB71FB79032BF4D966
:1005E400214B00229A73204B0022DA731E4B002207
:1005F4001A741D4B00225A741B4B00229A741A4B16
:10060400DA7E0022DA761A7F00221A775A7F0022D5
:100614005A779A7F00229A773868FFF714FE0023EE
:1006240002220821412000F03BFB01220821412045
:1006340000F0E0FB63230F220121002001F0A4F964
:100644000121002001F05EFA0020FFF716FE01F000
:1006540021FCFFF78BFEFFF74DFF00BF0837BD46B7
:1006640080BD00BF003802404800002080B584B03F
:1006740000AFAB4B5B79DBB2002B39D00020FFF726
:10068400FCFDFFF7EDFDB860A54B04221A71A44BE5
:100694000022DA70A24B00229A70A14B00229A71B8
:1006A400A04B00221A700023FB7307E0FB7B9C4ADB
:1006B400134400229A72FB7B0133FB73FB7B032BF5
:1006C400F4D9B868FFF7BFFDFFF7CAFDB860964BD1
:1006D40004229A70944B00221A71934B5B7943F075
:1006E4000103DAB2904B5A71B868FFF7ACFDB3E17D
:1006F4008B4B1B79DBB2042B00F24A8101A252F826
:1007040023F000BF1D070008B70700086F080008A2
:10071400310900088D0900080020FFF7AEFDFFF73E
:100724009FFDB8607E4B0022DA707D4B00229A70E8
:10073400B868FFF788FDFFF7AFFD0346002B00F014
:100744003481FFF7C7FD0346FB71FFF7E5FD034660
:10075400BB710023BB73FFF783FDB860FB79FF2BEC
:100764000ED06F4AFB7953706D4B01229A706C4B1B
:1007740001221A716A4B6322DA706323BB7310E09F
:10078400BB79FF2B0DD0664ABB795370644B0222B0
:100794009A70634B02221A71614B6322DA706323ED
:1007A400BB73B868FFF74FFDBB7B1846FFF765FDC9
:1007B40002E15B4B5B78DAB2594B1B78DBB29A42AD
:1007C4001BD9574B5B78DBB21A46554B1B78DBB20F
:1007D400D31A012B11DC524BDB78DBB2142B1DD066
:1007E400FFF73EFDB8604E4B1422DA70B868FFF78D
:1007F4002AFD1420FFF741FD10E0494BDB78DBB202
:10080400632B0BD0FFF72CFDB860454B6322DA70E5
:10081400B868FFF718FD6320FFF72FFD404B1B78E6
:10082400DAB23F4B5B78DBB29A4240F0C080FFF70C
:1008340017FDB8603A4B0022DA70394B1B78DBB2F3
:100844001A46374B134400229A72354B01229A718F
:10085400334B03221A71334B00221A70B868FFF726
:10086400F2FC0020FFF709FDA1E02D4B1B78DAB262
:100874002B4B5B78DBB29A421BD9294B1B78DBB23A
:100884001A46274B5B78DBB2D31A012B11DC244BBD
:10089400DB78DBB2142B1DD0FFF7E2FCB860204BF1
:1008A4001422DA70B868FFF7CEFC1420FFF7E5FCD9
:1008B40010E01B4BDB78DBB2632B0BD0FFF7D0FCD3
:1008C400B860174B6322DA70B868FFF7BCFC63208A
:1008D400FFF7D3FC124B1B78DAB2114B5B78DBB217
:1008E4009A4266D1FFF7BCFCB8600D4B0022DA7067
:1008F4000B4B1B78DBB21A46094B134400229A7245
:10090400074B01229A71064B03221A71054B0022F0
:100914001A70B868FFF797FC0020FFF7AEFC48E0B8
:100924004800002067000020840000200020FFF71A
:10093400A4FC4B4B5B7ADBB2002B0ED0494B1B78EB
:100944000133DAB2474B1A70FFF78AFCB860444BA4
:1009540000225A72B868FFF776FC424B1B78052BCD
:1009640029D9FFF77DFCB8603D4B00229A713C4BBE
:1009740000221A713A4B00229A703A4B00221A70E4
:10098400B868FFF760FC16E00020FFF776FC13E080
:10099400FFF766FCB860324B00221A71B868FFF7A3
:1009A40052FC0020FFF769FC06E000BF04E000BF32
:1009B40002E000BF00E000BFFFF752FCB860284B24
:1009C4001B78DAB2284B5A70254B1B79DAB2264BC6
:1009D4009A70234B5B78DAB2234BDA70204BDB78C6
:1009E400DAB2214B1A71204B00229A711E4B00225D
:1009F4005A711B4B5B79DBB2002B06D01A4B5B7927
:100A040043F00103DAB2184B5A71154B9B79DBB2F0
:100A1400002B06D0144B5B7943F00203DAB2124B7D
:100A24005A710F4B9B78DBB2012B06D10E4B5B79CD
:100A340043F00403DAB20C4B5A71094B9B78DBB2D6
:100A4400022B06D1084B5B7943F00803DAB2064B5C
:100A54005A71B868FFF7F7FB1037BD4680BD00BF79
:100A640048000020670000208400002080B584B086
:100A740000AF0346FB71FB790C2B63D801A252F83B
:100A840023F000BFBD0A0008D10A0008E50A0008E7
:100A9400F90A0008490B0008490B00080D0B00086F
:100AA400170B0008210B00082B0B0008350B00085E
:100AB400490B00083F0B0008FFF7D2FBF860244BFA
:100AC40001225A71F868FFF7BEFB3CE0FFF7C8FB50
:100AD400F8601F4B01221A70F868FFF7B4FB32E08C
:100AE400FFF7BEFBF8601A4B02221A70F868FFF792
:100AF400AAFB28E0FFF7B4FBF860154B03221A7039
:100B0400F868FFF7A0FB1EE00021012000F0B4FA12
:100B140019E00121022000F0AFFA14E000210220C4
:100B240000F0AAFA0FE00121032000F0A5FA0AE080
:100B34000021032000F0A0FA05E00121042000F0C8
:100B44009BFA00E000BF00BF1037BD4680BD00BF68
:100B54004800002080B500AF064B5B6903F0010339
:100B6400002B05D0034B01225A610020FFF77EFFC2
:100B740000BF80BD003C014080B500AF064B5B69FF
:100B840003F00203002B05D0034B02225A6101201B
:100B9400FFF76CFF00BF80BD003C014080B500AF93
:100BA400064B5B6903F00403002B05D0034B0422BE
:100BB4005A610220FFF75AFF00BF80BD003C01408C
:100BC40080B500AF064B5B6903F00803002B05D02A
:100BD400034B08225A610320FFF748FF00BF80BD82
:100BE400003C014080B500AF064B5B6903F0100385
:100BF400002B05D0034B10225A610420FFF736FF67
:100C040000BF80BD003C014080B582B000AF052329
:100C1400FB7115E00E4B5A69FB7922FA03F303F0DA
:100C24000103002B09D0FB79094A012101FA03F3DE
:100C34005361FB791846FFF719FFFB790133FB7108
:100C4400FB79092BE6D900BF00BF0837BD4680BD3C
:100C5400003C014080B582B000AF0A23FB7115E06F
:100C64000E4B5A69FB7922FA03F303F00103002BBC
:100C740009D0FB79094A012101FA03F35361FB7995
:100C84001846FFF7F3FEFB790133FB71FB790F2B59
:100C9400E6D900BF00BF0837BD4680BD003C014017
:100CA40090B484B000AF0446084611461A46234661
:100CB400FB710346BB710B467B7113463B71FB7999
:100CC400413BFB73FB7B2A4A52F82330BB60BB6871
:100CD4001B68BA795200032101FA02F2D2431A4086
:100CE400BB681A60BB681B687979BA79520001FA4B
:100CF40002F21A43BB681A607B79002B15D1BB68DA
:100D0400DB68BA795200032101FA02F2D2431A4095
:100D1400BB68DA60BB68DB683979BA79520001FADA
:100D240002F21A43BB68DA6012E0BB685B68BA7906
:100D3400012101FA02F2D2431A40BB685A60BB682F
:100D44005B683979BA7901FA02F21A43BB685A60CE
:100D5400BB689B68BA795200032101FA02F21A4374
:100D6400BB689A6000BF1037BD4690BC704700BF97
:100D74000000002080B485B000AF0346FB710B4631
:100D8400BB7113467B710123FB73FB79413BBB733E
:100D9400BB7B174A52F82330BB60BB681B68BA7927
:100DA4005200032101FA02F21A40BB795B0022FAD5
:100DB40003F3002B14D0BB685B69BA79012101FAF3
:100DC40002F2D2431A40BB685A61BB685B69797905
:100DD400BA7901FA02F21A43BB685A610023FB7321
:100DE400FB7B18461437BD465DF8047B704700BF93
:100DF4000000002080B487B000AF0346FB710B46AF
:100E0400BB7113467B71FB79413BFB75FB7D1D4A2E
:100E140052F823303B61BB79072B15D83B691A6A1A
:100E2400BB799B000F2101FA03F3DB431A403B69B2
:100E34001A623B691A6A7979BB799B0001FA03F358
:100E44001A433B691A6217E0BB79083BFB733B69A1
:100E54005A6AFB7B9B000F2101FA03F3DB431A4020
:100E64003B695A623B695A6A7979FB7B9B0001FAB8
:100E740003F31A433B695A6200BF1C37BD465DF851
:100E8400047B70470000002080B400AF4FF0804323
:100E94001B6903F00103002B0CD04FF080431B6946
:100EA4004FF0804223F001031361054B1B680133AB
:100EB400034A136000BFBD465DF8047B704700BF62
:100EC4006800002090B484B000AF04460846114680
:100ED4001A462346FB710346BB710B467B711346CE
:100EE4003B71FA797B79D31ADBB2FB7397F90F3034
:100EF400002B03DAFB7B5B42DBB2FB73BB79002B79
:100F040002D197F90F303BE0BB79012B09D13B7932
:100F1400002B06D1FA797B799A4202D297F90F30E5
:100F24002EE0BB79022B09D13B79012B06D1FA794A
:100F34007B799A4202D997F90F3021E0BB79012BD2
:100F44000BD13B79002B08D1FA797B799A4204D3EF
:100F5400FB7B0A33DBB25BB212E0BB79022B0BD111
:100F64003B79012B08D1FA797B799A4204D8FB7B2F
:100F74000A33DBB25BB203E0FB7B1433DBB25BB25C
:100F840018461037BD4690BC7047000080B483B04B
:100F940000AF0023FB7162E0FB79364A9B001344E7
:100FA40000229A70FB79334A9B0013440022DA70C2
:100FB400FB79002B0AD1FB792E4A012102F8231078
:100FC400FB792C4A9B00134400225A70FB79012BB5
:100FD4000AD1FB79274A022102F82310FB79254A1A
:100FE4009B00134401225A70FB79022B0AD1FB792E
:100FF400204A022102F82310FB791E4A9B00134465
:1010040000225A70FB79032B0AD1FB79194A032178
:1010140002F82310FB79174A9B00134401225A70EB
:10102400FB79042B0AD1FB79124A032102F823101D
:10103400FB79104A9B00134400225A70FB79052B5C
:101044000AD1FB790B4A042102F82310FB79094ADF
:101054009B00134401225A70FB790133FB71FB7925
:10106400052B99D900BF00BF0C37BD465DF8047B42
:10107400704700BF6C00002080B485B000AF034609
:101084000A46FB711346BB710023FB7322E0FB7B12
:10109400164A12F82330DBB2FA799A4217D1FB7B55
:1010A400124A9B0013445B78DBB2BA799A420ED1A0
:1010B400FB7B0E4A9B001344DB78DBB2002B0DD183
:1010C400FB7B0A4A9B00134401229A7006E0FB7BD7
:1010D4000133FB73FB7B052BD9D900E000BF00BFB4
:1010E4001437BD465DF8047B704700BF6C000020D8
:1010F40080B584B000AF03460A46FB711346BB714A
:101104001F4BDB79DBB2002B01D0012334E01C4BF5
:101114001B787B731A4B1B79DBB2042B02D9002397
:10112400FB7302E0164B1B79FB73154B9B7B3B73E4
:10113400134BDB7BDBB2042B02D90023BB7302E02D
:101144000F4BDB7BBB73BB79FA79F97B787BFFF7B9
:10115400B9FE0346FB72BB79FA79B97B387BFFF79A
:10116400B1FE0346BB7297F90B2097F90A309A42F5
:1011740001DC012300E0022318461037BD4680BD80
:101184004800002080B582B000AF0023FB7180E0EE
:10119400FB79444A9B0013449B78DBB2002B28D094
:1011A400FB79404A9B001344DB78DBB2002B20D14F
:1011B400FB793C4A12F82330DAB2FB7939499B00B7
:1011C4000B445B78DBB219461046FFF791FF0346E8
:1011D400BB71FB79334A9B001344BA79DA70BB794B
:1011E400022B06D1FB792F4A12F82330DAB22E4BA8
:1011F4009A75FB792B4A12F823307B71FB79294AC3
:101204009B001344DB78DBB2012B17D1264B1B78F0
:10121400DBB27A799A4239D1234B9B79DBB2002B2A
:1012240034D0FB791F4A9B00134400229A70FB7947
:101234001C4A9B0013440022DA7027E0FB79194A08
:101244009B001344DB78DBB2022B1FD1164B9B7C33
:10125400DBB203F00203002B01D0012300E00023E2
:101264003B71114B9B7BDBB27A799A420ED13B796D
:10127400002B0BD0FB790B4A9B00134400229A707D
:10128400FB79084A9B0013440022DA70FB7901338E
:10129400FB71FB79052B7FF67BAF00BF00BF0837DE
:1012A400BD4680BD6C0000204800002080B483B09F
:1012B40000AFEFF310837B607B6818460C37BD46A4
:1012C4005DF8047B704780B400AF72B600BFBD46C2
:1012D4005DF8047B704780B483B000AF78607B68AE
:1012E40083F3108800BF0C37BD465DF8047B70475C
:1012F40080B582B000AFFFF7D9FF7860FFF7E3FF56
:101304007B6818460837BD4680BD80B485B000AF01
:1013140078600023FB730023BB730AE0BB7B7A680D
:1013240013441B78DAB2FB7B5340FB73BB7B013362
:10133400BB73BB7B062BF1D9FB7B18461437BD4628
:101344005DF8047B704790B585B000AF7860396074
:101354007B68A5221A707B6800229A71FFF7C8FF88
:10136400F8607B681A783B681A703B6801337A68C6
:1013740052781A703B6802337A6892781A703B6824
:1013840003337A68D2781A703B6804337A68127926
:101394001A703B6805337A6852791A703B680633D1
:1013A4007A6892791A703B68DC1D3868FFF7ADFFE4
:1013B400034623703B6807331B78DAB27B68DA7123
:1013C400F868FFF788FF00BF1437BD4690BD0000E2
:1013D40080B584B000AF0346FB710023FB730CE0BF
:1013E400FB7B254A134400221A74FB7B224A1344D4
:1013F40000221A76FB7B0133FB73FB7B072BEFD9AF
:101404001D4B002283F820201B4B00225A621A4BEA
:1014140000229A62184BA5221A70174B00225A70A8
:10142400154B00229A70144B0022DA70124B0022E2
:101434001A71114B00225A710F4B00229A710E4BF4
:101444000022DA710D4B0E4A1A60FB79002B03D08F
:101454000A4800F08FFB0AE0084800F0BDFB094988
:101464000548FFF770FF0749044800F0E7FB00BF99
:101474001037BD4680BD00BF84000020B0000020AE
:10148400003001409400002080B582B000AF786045
:1014940012497868FFF757FF114B1B6803F00403E8
:1014A400002B0CD00F4B5B7E002B13D100F050FBB4
:1014B40008230D4A09490B4800F0DAFB0BE0074901
:1014C400084800F0BBFB074B074A5A60054B08224B
:1014D4001A7200E000BF0837BD4680BD94000020AA
:1014E40000300140B00000209C00002080B584B092
:1014F40000AFFFF7FDFEB8600023FB730CE0FA7B3E
:10150400FB7B3E490A44127ED2B210333B4403F8BB
:10151400102CFB7B0133FB73FB7B072BEFD9B868E3
:10152400FFF7D9FE3B78A52B05D0344B012283F875
:10153400202000235EE00023BB730023FB730AE03A
:10154400FB7B10333B4413F8102CBB7B5340BB7321
:10155400FB7B0133FB73FB7B062BF1D9FB79BA7B55
:101564009A4205D0254B012283F82020002341E034
:101574007B78032B05D9214B012283F820200023FB
:1015840038E0BB78042B05D91C4B012283F82020BA
:1015940000232FE03B79002B0BD03B79142B08D090
:1015A4003B79632B05D0154B012283F820200023BF
:1015B40020E03A78114B1A727A78104B5A72BA7842
:1015C4000E4B9A72FA780D4BDA723A790B4B1A7306
:1015D4007A790A4B5A73BA79084B9A73FA79074B9A
:1015E400DA73064B002283F82020044B9B6A034ADB
:1015F4005362012318461037BD4680BD8400002085
:1016040080B582B000AF334B9B6A3233314A936268
:10161400304B9A6A2F4B5B6AD31A952B13D92D4BF7
:10162400012283F820202B4B5B7943F02003DAB2AC
:10163400284B5A71FFF75CFE7860274B0122DA7160
:101644007868FFF748FE254B5B7ADBB2002B3AD073
:10165400224B00225A72FFF749FF0346002B32D077
:101664001F4B1B6803F00403002B29D0FFF740FE37
:101674003860184B5A7A184B9A73164B9A7A164B51
:10168400DA73144BDA7A144B1A74124B1A7B124B1A
:101694005A74104B5A7B104B9A740F4B0022DA7118
:1016A400104A0D4B13331168526819605A60094B84
:1016B4009B6A094AC2F81B303868FFF70CFE02E047
:1016C400084800F0ADFB0348FFF7DEFE00BF083713
:1016D400BD4680BD8400002048000020B0000020EA
:1016E400003001408C00002080B483B000AFEFF3E1
:1016F40010837B607B6818460C37BD465DF8047B1D
:10170400704780B400AF72B600BFBD465DF8047B7D
:10171400704780B483B000AF78607B6883F310882F
:1017240000BF0C37BD465DF8047B704780B582B0BE
:1017340000AFFFF7D9FF7860FFF7E3FF7B68184637
:101744000837BD4680BD000080B483B000AF0D4BA8
:101754001B69DBB203F00103FB710B4B1B78DBB29B
:10176400002B05D0FB79002B02D1084B00221A7004
:10177400054AFB79137000BF0C37BD465DF8047B46
:10178400704700BF000802401000002048000020FD
:1017940080B483B000AF2C4B1B69DBB203F00103B0
:1017A400FB712A4B1B78DBB2002B05D0FB79002B95
:1017B40002D1274B01229A72244AFB791370224BDF
:1017C4001B695B08DBB203F00103BB71214B1B787F
:1017D400DBB2002B05D0BB79002B02D11C4B0122BC
:1017E400DA721C4ABB791370174B1B699B08DBB276
:1017F40003F001037B71184B1B78DBB2002B05D07F
:101804007B79002B02D1124B01221A73124A7B7985
:1018140013700D4B1B69DB08DBB203F001033B7152
:101824000E4B1B78DBB2002B05D03B79002B02D189
:10183400074B01225A73094A3B79137000BF0C37D6
:10184400BD465DF8047B7047000002401100002093
:101854004800002012000020130000201400002083
:1018640080B400AF144B1B68134A43F001031360A8
:1018740000BF114B1B6803F00203002BF9D00E4B81
:1018840000229A600C4B1B680B4A23F0867323F4E6
:1018940080331360084B094A5A60074B1B68064A99
:1018A40023F480231360044B0022DA6000BFBD469A
:1018B4005DF8047B704700BF0038024010300024FC
:1018C40080B588B000AFFFF7CBFFFEF74BFEFFF704
:1018D4005DFB0120FFF77CFD224BFB61224BBB61CA
:1018E400224B7B61224B3B61BB693A691A607B697D
:1018F40000221A60FB6907221A60FEF7B7FEFFF7A1
:1019040041FC1C4B9A6A1B4B5B6AD31AFB60FB6855
:10191400962B0DD9FFF70AFF7860164B012283F846
:101924002020154B0122DA717868FFF7F2FE0CE0F3
:10193400FFF7FCFEB8600F4B002283F820200E4B0B
:101944000022DA71B868FFF7E4FE0B4B1B7ADBB2B6
:10195400002B01D000F0DEFBFFF7F6FEFFF718FFC7
:10196400CBE700BF10E000E014E000E018E000E086
:10197400FF340C00840000204800002080B500AF34
:10198400FFF73EFE00BF80BD90B484B000AF0446B4
:10199400084611461A462346FB710346BB710B46A3
:1019A400BB8013467B80FB793B4A52F82330FB60B3
:1019B400FB6800221A60BA88FB689A627A88FB681E
:1019C400DA62FB6800225A62BB79022B18D8BB7911
:1019D400013BDBB2DB00BB72FB689A69BB7AFF2177
:1019E40001FA03F3DB431A40FB689A61FB689A69C6
:1019F400BB7A682101FA03F31A43FB689A6117E082
:101A0400BB79033BDBB2DB00FB72FB68DA69FB7A70
:101A1400FF2101FA03F3DB431A40FB68DA61FB6838
:101A2400DA69FB7A682101FA03F31A43FB68DA6185
:101A3400FB681B6ABA79013A9200012101FA02F2A9
:101A44001A43FB681A62FB6803F13402BB7903F1A1
:101A54008043013B9B00134400221A60FB681B680F
:101A640043F08002FB681A60FB685B6943F0010283
:101A7400FB685A61FB79002B05D1FB685B6C43F46E
:101A84000042FB685A64FB6800221A6100BF1037E9
:101A9400BD4690BC704700BF1800002080B487B0DA
:101AA40000AF0346FB710B46BB7113467B71FB7998
:101AB400124A52F823307B617B79642B01D9642369
:101AC4007B717B69DB6A3B617B793A6902FB03F3D7
:101AD4000B4AA2FB03235B09FB607B6903F134021D
:101AE400BB7903F18043013B9B001344FA681A60FD
:101AF40000BF1C37BD465DF8047B7047180000200A
:101B04001F85EB5180B485B000AF03460A46FB71D4
:101B14001346BB71FB790D4A52F82330FB60FB6816
:101B24001B6ABA79013A9200012101FA02F21A43BE
:101B3400FB681A62FB681B6843F00102FB681A60C9
:101B440000BF1437BD465DF8047B704718000020C1
:101B540080B500AF002204214120FFF70BF900BF3C
:101B640080BD80B500AF012204214120FFF702F9B6
:101B740000BF80BD80B483B000AF78607B68144A36
:101B84001A607B6800225A767B6800225A607B6860
:101B940000221A727B6800225A720D4B1B680C4A91
:101BA40043F0040313600B4B08225A60084B5B6834
:101BB400074A23F040035360054B5B68044A23F053
:101BC4008003536000BF0C37BD465DF8047B70474B
:101BD4000030014000E100E080B483B000AF7860E1
:101BE4007B68144A1A607B6800225A767B6800225C
:101BF4005A607B6800221A727B6800225A720D4B6D
:101C04001B680C4A23F0040313600B4B08225A6030
:101C1400084B5B68074A23F040035360054B5B683D
:101C2400044A23F08003536000BF0C37BD465DF8BF
:101C3400047B70470030014000E100E080B485B0CF
:101C440000AF786039603B681B78FB7300BF074BBB
:101C54009B6803F00203002BF9D0044AFB7BD3609A
:101C640000BF1437BD465DF8047B70470030014067
:101C740080B485B000AFF860B9607A60FB70FB682F
:101C84005B7E002B3DD1224ABB681360214AFB785E
:101C94001370214B00221A70204A7B681360204A7B
:101CA400FB7813701F4B00221A70FB687A685A6025
:101CB400FB68FA781A72FB6800225A72FB680122E8
:101CC4005A76194B5B68184A43F040035360164B2D
:101CD4005B68154A43F080035360134B9B6803F021
:101CE4000203002B0ED00A4B1A680B4B1B78591CAD
:101CF400C8B20949087013441B78DAB20A4BDA6097
:101D040000E000BF1437BD465DF8047B704700BF98
:101D1400CC000020D0000020D1000020D4000020FE
:101D2400D8000020D90000200030014080B582B0E6
:101D340000AF334B9B687B607B6803F00103002B8F
:101D440037D02F4BDB68FB702E4B1B68002B10D059
:101D54002D4B1A782D4B1B789A420AD2294B1A68BC
:101D6400294B1B78591CC8B2274908701344FA78C8
:101D74001A70254B1A78254B1B789A4219D3204B9D
:101D84005B681F4A23F0400353601D4B5B681C4A89
:101D940023F0800353601E4B01225A721C4B002215
:101DA4005A76174B1B6803F00403002B01D0FFF78E
:101DB400D8FE7B6803F00203002B1DD0154B1B6873
:101DC400002B13D0144B1A78144B1B789A420DD263
:101DD400104B1A68104B1B78591CC8B20E49087076
:101DE40013441B78DAB2064BDA6005E0044B5B68F7
:101DF400034A23F08003536000BF0837BD4680BD0B
:101E040000300140D4000020D9000020D800002078
:101E1400B0000020CC000020D1000020D000002021
:101E240080B483B000AF786000BF0C37BD465DF866
:101E3400047B704780B483B000AFEFF310837B6002
:101E44007B6818460C37BD465DF8047B704780B448
:101E540000AF72B600BFBD465DF8047B704780B426
:101E640083B000AF78607B6883F3108800BF0C37C1
:101E7400BD465DF8047B704780B582B000AFFFF7C4
:101E8400D9FF7860FFF7E3FF7B6818460837BD4643
:101E940080BD000080B485B000AF594B1B6B584A1D
:101EA40043F001031363564B1B6B554A43F4800301
:101EB4001363534B5B6C524A43F010035364514B0E
:101EC400FB60514BBB60514B7B60FB681B6823F488
:101ED4007012FB681A60FB681B6843F42012FB68ED
:101EE4001A60BB681B6823F47012BB681A60BB6875
:101EF4001B6843F42012BB681A607B681B6823F4D8
:101F04007F627B681A607B681B6843F4EE627B68BF
:101F14001A603F4BDB683E4A23F40053D3603C4BCA
:101F240040F6AE029A603A4B0022DA60384BDB6826
:101F3400374A43F00803D360354BDB68344A43F037
:101F44000403D360324B00225A61314B5B69304A3F
:101F540043F0800353612E4BDB682D4A43F4005356
:101F6400D3602C4B1B682B4A23F00103136000BF82
:101F7400284B1B6803F00103002BF9D1264B4FF0CB
:101F84007C62DA60234B254A9A60224B244ADA6049
:101F9400204B00221A601F4B1B681E4A43F000634B
:101FA40013601C4B1B681B4A43F400331360194B2A
:101FB4001B68184A43F480631360164B1B68154A68
:101FC40043F040031360134B1B68124A43F01003A1
:101FD4001360104B1B680F4A43F0040313600D4B4E
:101FE40000225A610F4B302283F846230D4B4022C6
:101FF4009A6000BF1437BD465DF8047B704700BF8C
:102004000038024000000240080002402400024060
:1020140000100140B8640240006402400410014012
:10202400DC00002000E100E080B483B000AF034690
:10203400FB71184B1B78DBB2002B23D1FB79002BEF
:1020440022D0144B01221A70134B1B68124A23F03E
:102054000103136000BF104B1B6803F00103002B46
:10206400F9D10E4B4FF07C62DA600B4AFB79536076
:10207400094B0B4ADA60084B1B68074A43F001031B
:10208400136002E000BF00E000BF0C37BD465DF8FE
:10209400047B70475C010020B86402400064024085
:1020A400DC00002080B400AF174B5B6803F00063D2
:1020B400002B0ED0144BDB68134A43F00063D3604B
:1020C400124B1B68114A23F001031360104B0022CA
:1020D4001A700D4B5B6803F00073002B0ED00A4B93
:1020E400DB68094A43F00073D360084B1B68074A56
:1020F40023F001031360064B00221A7000BFBD4693
:102104005DF8047B704700BF00640240B86402407D
:102114005C01002080B59AB000AFBD4B1B78DBB2E8
:10212400002B40F03284FFF7A7FE7861B94B1B788F
:10213400FB74B84B1B79BB74B64BDB787B74B54B23
:102144009B783B74B34B5B79FB73B24BDB79BB730A
:10215400B04B9B797B73AF4B9B7B3B73AD4BDB7B72
:10216400FB72AC4B00221A727869FFF778FEAA4B17
:102174007B60002387F86730A84B3B660CE03B6E1E
:102184005A1C3A6697F86720511C87F86710114665
:102194007A680A441B7813703B6E1B78002B03D0BB
:1021A40097F867307C2BEAD9FB7C013387F85F30E2
:1021B40097F85F30632B1DD997F85F30984AA2FBDC
:1021C40003235B09DAB297F86730591C87F8671064
:1021D40019467B680B443032D2B21A7097F85F30DC
:1021E4008F4AA2FB03125209642101FB02F29B1ADB
:1021F40087F85F3097F85F30092B1ED997F85F3066
:10220400884AA2FB0323DB08DAB297F86730591C2B
:1022140087F8671019467B680B443032D2B21A70C3
:1022240097F85F207F4BA3FB0213D9080B469B0052
:102234000B445B00D31A87F85F3097F867305A1C59
:1022440087F867201A467B68134497F85F2030327A
:10225400D2B21A70744BBB650CE0BB6D5A1CBA65E4
:1022640097F86720511C87F8671011467A680A446A
:102274001B781370BB6D1B78002B03D097F8673065
:102284007C2BEAD9BB7C87F8573097F85730632BFF
:102294001DD997F85730624AA2FB03235B09DAB2CF
:1022A40097F86730591C87F8671019467B680B4408
:1022B4003032D2B21A7097F85730594AA2FB03123F
:1022C4005209642101FB02F29B1A87F8573097F8F0
:1022D4005730092B1ED997F85730524AA2FB0323D3
:1022E400DB08DAB297F86730591C87F8671019468B
:1022F4007B680B443032D2B21A7097F85720494B9E
:10230400A3FB0213D9080B469B000B445B00D31AB2
:1023140087F8573097F867305A1C87F867201A46B1
:102324007B68134497F857203032D2B21A703F4B6F
:102334003B650CE03B6D5A1C3A6597F86720511CCD
:1023440087F8671011467A680A441B7813703B6D4E
:102354001B78002B03D097F867307C2BEAD97B7C61
:1023640087F84F3097F84F30632B1DD997F84F30CB
:102374002B4AA2FB03235B09DAB297F86730591C96
:1023840087F8671019467B680B443032D2B21A7052
:1023940097F84F30224AA2FB03125209642101FB31
:1023A40002F29B1A87F84F3097F84F30092B1ED949
:1023B40097F84F301B4AA2FB0323DB08DAB297F8E5
:1023C4006730591C87F8671019467B680B44303214
:1023D400D2B21A7097F84F20124BA3FB0213D908FC
:1023E4000B469B000B445B00D31A87F84F3097F8D9
:1023F40067305A1C87F867201A467B68134497F89D
:102404004F203032D2B21A70094BBB641FE000BFB8
:102414005C01002048000020DC000020542A000851
:102424001F85EB51CDCCCCCC5C2A0008642A000873
:102434006C2A0008BB6C5A1CBA6497F86720511CBC
:1024440087F8671011467A680A441B781370BB6CCE
:102454001B78002B03D097F867307C2BEAD93B7CA0
:1024640087F8473097F84730632B1DD997F84730E2
:10247400944AA2FB03235B09DAB297F86730591C2C
:1024840087F8671019467B680B443032D2B21A7051
:1024940097F847308B4AA2FB03125209642101FBCF
:1024A40002F29B1A87F8473097F84730092B1ED958
:1024B40097F84730844AA2FB0323DB08DAB297F883
:1024C4006730591C87F8671019467B680B44303213
:1024D400D2B21A7097F847207B4BA3FB0213D9089A
:1024E4000B469B000B445B00D31A87F8473097F8E0
:1024F40067305A1C87F867201A467B68134497F89C
:1025040047203032D2B21A70704B3B640CE03B6C03
:102514005A1C3A6497F86720511C87F867101146D3
:102524007A680A441B7813703B6C1B78002B03D029
:1025340097F867307C2BEAD9FB7B87F83F3097F814
:102544003F30632B1DD997F83F305E4AA2FB03232B
:102554005B09DAB297F86730591C87F86710194697
:102564007B680B443032D2B21A7097F83F30554A28
:10257400A2FB03125209642101FB02F29B1A87F8A1
:102584003F3097F83F30092B1ED997F83F304E4A19
:10259400A2FB0323DB08DAB297F86730591C87F8EB
:1025A400671019467B680B443032D2B21A7097F820
:1025B4003F20454BA3FB0213D9080B469B000B4459
:1025C4005B00D31A87F83F3097F867305A1C87F8B6
:1025D40067201A467B68134497F83F203032D2B202
:1025E4001A703B4BBB630CE0BB6B5A1CBA6397F885
:1025F4006720511C87F8671011467A680A441B78D3
:102604001370BB6B1B78002B03D097F867307C2BBF
:10261400EAD9BB7B87F8373097F83730632B1DD95D
:1026240097F83730274AA2FB03235B09DAB297F8FD
:102634006730591C87F8671019467B680B443032A1
:10264400D2B21A7097F837301E4AA2FB031252090D
:10265400642101FB02F29B1A87F8373097F8373070
:10266400092B1ED997F83730174AA2FB0323DB083E
:10267400DAB297F86730591C87F8671019467B68F7
:102684000B443032D2B21A7097F837200E4BA3FBAA
:102694000213D9080B469B000B445B00D31A87F83E
:1026A400373097F867305A1C87F867201A467B68DA
:1026B400134497F837203032D2B21A70054B3B637B
:1026C40017E000BF1F85EB51CDCCCCCC742A000899
:1026D4007C2A0008842A00083B6B5A1C3A6397F84A
:1026E4006720511C87F8671011467A680A441B78E2
:1026F40013703B6B1B78002B03D097F867307C2B4F
:10270400EAD97B7B87F82F3097F82F30632B1DD9BC
:1027140097F82F309F4AA2FB03235B09DAB297F89C
:102724006730591C87F8671019467B680B443032B0
:10273400D2B21A7097F82F30964AA2FB03125209AC
:10274400642101FB02F29B1A87F82F3097F82F308F
:10275400092B1ED997F82F308F4AA2FB0323DB08DD
:10276400DAB297F86730591C87F8671019467B6806
:102774000B443032D2B21A7097F82F20864BA3FB49
:102784000213D9080B469B000B445B00D31A87F84D
:102794002F3097F867305A1C87F867201A467B68F1
:1027A400134497F82F203032D2B21A707B4BBB629D
:1027B4000CE0BB6A5A1CBA6297F86720511C87F870
:1027C400671011467A680A441B781370BB6A1B7839
:1027D400002B03D097F867307C2BEAD93B7B01337D
:1027E40087F8273097F82730632B1DD997F82730BF
:1027F400684AA2FB03235B09DAB297F86730591CD5
:1028040087F8671019467B680B443032D2B21A70CD
:1028140097F827305F4AA2FB03125209642101FB97
:1028240002F29B1A87F8273097F82730092B1ED914
:1028340097F82730584AA2FB0323DB08DAB297F84B
:102844006730591C87F8671019467B680B4430328F
:10285400D2B21A7097F827204F4BA3FB0213D90862
:102864000B469B000B445B00D31A87F8273097F87C
:1028740067305A1C87F867201A467B68134497F818
:1028840027203032D2B21A70454B3B620CE03B6ACF
:102894005A1C3A6297F86720511C87F86710114652
:1028A4007A680A441B7813703B6A1B78002B03D0A8
:1028B40097F867307C2BEAD9FB7AFB77FB7F632B95
:1028C4001AD9FB7F334AA2FB03235B09DAB297F8D8
:1028D4006730591C87F8671019467B680B443032FF
:1028E400D2B21A70FB7F2B4AA2FB03125209642155
:1028F40001FB02F29B1AFB77FB7F092B1BD9FB7FA1
:10290400254AA2FB0323DB08DAB297F86730591C87
:1029140087F8671019467B680B443032D2B21A70BC
:10292400FA7F1D4BA3FB0213D9080B469B000B44F3
:102934005B00D31AFB7797F867305A1C87F8672037
:102944001A467B681344FA7F3032D2B21A70154BA0
:10295400BB610CE0BB695A1CBA6197F86720511C33
:1029640087F8671011467A680A441B781370BB69AC
:102974001B78002B03D097F867307C2BEAD997F8A3
:1029840067301846FFF750FB00E000BF6837BD46CC
:1029940080BD00BF1F85EB51CDCCCCCC8C2A000868
:1029A400942A00089C2A000800200B490B4A0C4B6F
:1029B40002E01C580C5004300C189442F9D3002047
:1029C4000849094A01E0086004319142FBD300F050
:1029D4000FF8FEF775FF0000000000202C00002017
:1029E400A82A00082C00002060010020FEE7000057
:1029F40070B50D4B0D4D5B1B9C100026A64209D1F2
:102A040000F01AF80A4D0B4B5B1B9C100026A642E3
:102A140005D170BD55F8043B98470136EEE755F8EB
:102A2400043B98470136F2E7A02A0008A02A0008D0
:102A3400A02A0008A42A0008F8B500BFF8BC08BC06
:102A44009E467047F8B500BFF8BC08BC9E46704768
:102A5400454C567C464C3A007C53543A00000000E6
:102A64007C53503A000000007C4449523A00000074
:102A74007C454D3A000000007C43463A00000000CB
:102A84007C444F3A000000007C534C5F464C3A00B3
:0C2A94007C534C5F53543A000D0A0000C4
:042AA000FD0100082C
:042AA400D501000850
:102AA800000002400004024000080240000C0240FE
:102AB8000101010101000000000001400000004088
:0C2AC8000004004000080040000C00402A
:04000005080029AD19
:00000001FF
